:020000040800F2
:10000000480A00205D1D0008C1050008C30500085E
:10001000C7050008CB050008CF0500080000000058
:10002000000000000000000000000000D3050008F0
:10003000D505000800000000D7050008D905000814
:10004000771D0008771D0008771D0008771D000840
:10005000771D0008771D0008771D0008771D000830
:10006000771D0008771D0008771D0008771D000820
:10007000771D0008771D0008771D0008771D000810
:10008000771D0008771D0008771D0008771D000800
:10009000771D0008771D0008771D0008771D0008F0
:1000A000771D0008771D0008771D0008771D0008E0
:1000B000771D00084B0F0008771D0008771D00080A
:1000C000771D0008771D0008771D0008771D0008C0
:1000D000771D0008C91C0008771D0008771D00085F
:1000E000771D0008771D0008771D0008771D0008A0
:1000F000771D0008771D0008771D0008771D000890
:10010000771D0008771D0008771D0008771D00087F
:10011000771D0008771D0008771D0008771D00086F
:10012000771D0008771D0008771D0008771D00085F
:1001300000F002F800F067F80AA090E8000C824492
:100140008344AAF10107DA4501D100F05CF8AFF26F
:10015000090EBAE80F0013F0010F18BFFB1A43F0A5
:10016000010318474C5900006C5900000A444FF035
:10017000000C10F8013B13F0070408BF10F8014B06
:100180001D1108BF10F8015B641E05D010F8016B4B
:10019000641E01F8016BF9D113F0080F1EBF10F8AF
:1001A000014BAD1C0C1B09D16D1E58BF01F801CBD2
:1001B000FAD505E014F8016B01F8016B6D1EF9D555
:1001C0009142D6D37047000000230024002500266A
:1001D000103A28BF78C1FBD8520728BF30C148BFAA
:1001E0000B607047662905F00180002070471FB53D
:1001F00003F0E0FD04000020002104F01DFBE0609E
:100200001FBD10B510BD03F0D5FE1146FFF7EFFF7F
:1002100000F008F803F0F3FE03B4FFF7F2FF03BCAD
:1002200001F064FC1CB500BF0121092002F040F977
:100230000121B74801F051FF01F0EEFB4FF4A0603F
:1002400001F0ACFD4FF4E13001F05FFC00F014FB75
:1002500000F0B4FA00F0A6FD00F03BFC01F082FAD9
:1002600000BF01F0EDF80028FBD1AAA003F096FA38
:1002700000221146102000F029FD0122002120203B
:1002800000F024FD02220021302000F01FFD032297
:100290000021402000F01AFD04220021502000F02F
:1002A00015FD05220021602000F010FD0822062126
:1002B000002000F00BFD09220621102000F006FDB1
:1002C00010233A220621202000F041FC102396A2A0
:1002D0000621282000F0D7FC18E1002193480A46A7
:1002E000934BCDE90010084601F06CF90646002258
:1002F000904B04F0FBFD044604F0B4FA8E4908600C
:100300000A2001F0C6FB002188480A46884BCDE947
:100310000010012001F056F906460022874B04F038
:10032000E5FD044604F09EFA854908600A2001F0C4
:10033000B0FB00217D480A467D4BCDE9001002202C
:1003400001F040F9064600227C4B04F0CFFD044644
:1003500004F088FA7B4908600A2001F09AFB00212A
:1003600072480A46724BCDE90010032001F02AF9C9
:1003700006460022714B04F0B9FD044604F072FAFF
:10038000714908600A2001F084FB04206F4908606D
:100390006948006804F094FE044622460B466CA0AF
:1003A00003F0FCF96648006804F08AFE0446224621
:1003B0000B466EA003F0F2F96248006804F080FE7C
:1003C000044622460B4670A003F0E8F95E48006838
:1003D00004F076FE044622460B4672A003F0DEF9D6
:1003E00050A003F0DBF906220221002000F06EFC91
:1003F00007220221102000F069FC10233122022183
:10040000202000F0A4FB10233A220221282000F033
:100410009EFB4948006804F07FFE04461020062336
:10042000224602210090302000F0E9FB0622042140
:10043000002000F04BFC07220421102000F046FCB5
:10044000102332220421202000F081FB10233A22C5
:100450000421282000F07BFB3948006804F05CFE92
:10046000044610200623224604210090302000F08C
:10047000C6FBC82001F00DFB06220221002000F07F
:1004800025FC07220221102000F020FC102333223B
:100490000221202000F05BFB10233A2202212820B9
:1004A00000F055FB2748006804F036FE0446102093
:1004B0000623224602210090302000F0A0FB0622F5
:1004C0000421002000F002FC07220421102000F08B
:1004D000FDFB102334220421202000F038FB1023E0
:1004E0003A220421282000F032FB1748006804F06B
:1004F00013FE0446102006232246042100903020DB
:1005000000F07DFB04201149091F0860E5E60000AA
:10051000000230004644433232313420496E69745F
:10052000204F4B210D0A0000704600000080404023
:1005300000003240000026400000002000002C4057
:1005400004000020080000200C00002014180140C6
:1005500043617061636974795F76616C7565313D83
:100560002025352E33662070460D0A0043617061E8
:10057000636974795F76616C7565323D2025352E2F
:1005800033662070460D0A004361706163697479B7
:100590005F76616C7565333D2025352E336620709E
:1005A000460D0A0043617061636974795F76616C1E
:1005B0007565343D2025352E33662070460D0A00C2
:1005C000704700BFFEE700BFFEE700BFFEE700BFC9
:1005D000FEE7704770477047704700000CB5002079
:1005E000019000906C48006840F480306A490860CF
:1005F00000BF6948006800F4003000900198401C7A
:100600000190009818B90198B0F5A06FF1D1624837
:10061000006800F4003010B10120009001E00020DB
:1006200000900098012843D15C48006840F0100019
:100630005A4908600846006820F003000860084630
:10064000006840F002000860534840685249486022
:100650000846406848600846406840F4806048604A
:100660000846406820F47C1048600846406840F422
:10067000E81048600846006840F08070086000BFDD
:100680004548006800F000700028F9D042484068F2
:1006900020F00300404948600846406840F00200EE
:1006A000486000BF3C48406800F00C000828F9D1C1
:1006B0000CBD10B5FFF792FF10BD10B536480068AD
:1006C00040F0010034490860084640683449084059
:1006D0003149486008460068324908402E490860A0
:1006E0000846006820F4802008600846406820F42E
:1006F000FE0048604FF41F008860FFF7DAFF4FF0FC
:1007000000602949086010BD10B5002100200022BA
:10071000214B5B6803F00C0121B1042906D00829A4
:1007200028D107E0214B224C236027E01F4B204CAF
:10073000236023E0184B5B6803F47010164B5B6872
:1007400003F48032022303EB904022B9194B434358
:10075000174C23600DE0104B5B6803F4003323B1AA
:10076000144B4343124C236003E0104B4343104CA3
:10077000236003E00D4B0E4C236000BF00BF064B0F
:100780005B68C3F303130C4CE15C094B1B68CB4063
:10079000074C236010BD0000001002400020024002
:1007A0000000FFF8FFFFF6FE08ED00E000127A00FF
:1007B0001000002000093D001400002008B50121B0
:1007C000082001F075FE48208DF803008020ADF868
:1007D00000006946264801F0AFFB4FF40050ADF829
:1007E00000006946224801F0A7FB08BD70B5044629
:1007F0000D462946204601F032FC90B90A2001F04E
:1008000048F92946204601F02AFC40B900BF294694
:10081000204601F024FC0028F9D0002070BD012002
:10082000FCE70120FAE710B5044614B10120114994
:1008300008701048007888B180210D4801F00FFC45
:1008400060B90A2001F025F900200A4908708021CA
:10085000074801F004FC48B9012010BD802104487C
:1008600001F0FDFB012801D1024908700020F4E7E6
:10087000000C01402400002008B50121402001F0B7
:1008800017FE4FF40170ADF8000010208DF8030042
:1008900003208DF8020069460C4801F04DFB012150
:1008A000082001F005FE0820ADF800006946084860
:1008B00001F042FB4FF4007004491031086004203D
:1008C00008600821024801F0E6FB08BD001801405D
:1008D000000C014010B54FF48061F94801F0D9FBDC
:1008E0004FF40061F64801F0D4FB4FF40061F44886
:1008F00001F0D1FB4FF48061F14801F0CCFB10BD59
:1009000010B54FF48061EE4801F0C3FB4FF4006175
:10091000EB4801F0C0FB4FF40061E94801F0B9FB7E
:1009200010BD10B54FF48061E54801F0B2FB4FF403
:100930008061E34801F0AFFB10BD2DE9F0410546B1
:100940002C464FF48061DE4801F0A5FB00261CE038
:10095000274607F08007802F04D13901D84801F0DD
:1009600098FB04E04FF40061D54801F094FB600669
:10097000040E4FF48061D24801F08BFB4FF480618C
:10098000CF4801F088FB701CC6B2082EE0DBBDE842
:10099000F08110B50446FFF79DFF7820FFF7CDFFEB
:1009A000FFF7BFFF0020FFF7C8FFFFF7BAFF2046A1
:1009B000FFF7C3FFFFF7B5FFFFF7A2FF10BD10B5AC
:1009C0000446FFF787FF7820FFF7B7FFFFF7A9FF7F
:1009D0004020FFF7B2FFFFF7A4FF2046FFF7ADFF6F
:1009E000FFF79FFFFFF78CFF10BD70B504460D4663
:1009F0001DB1E0B2FFF7E3FF02E0E0B2FFF7C9FF8D
:100A000070BD70B50646002418E004F1B000002166
:100A1000FFF7EBFF00210846FFF7E7FF002110205A
:100A2000FFF7E3FF002505E001213046FFF7DDFF7A
:100A3000681CC5B2802DF7DB601CC4B2082CE4DB57
:100A400070BD06E041F6650100E0491E0029FCD1B9
:100A5000401E0028F6D17047014605E0002001E065
:100A6000421CD0B27B28FBDB0A00A1F10101F5D1C9
:100A7000704770B504460D4605F1B0000021FFF740
:100A8000B4FF102141EA14100021FFF7AEFF04F07B
:100A90000F000021FFF7A9FF70BD10B500218D20C8
:100AA000FFF7A3FF00211420FFF79FFF0021AF20D5
:100AB000FFF79BFF10BD10B500218D20FFF795FFBC
:100AC00000211020FFF791FF0021AE20FFF78DFFDE
:100AD00010BD70B5002418E004F1B0000021FFF74C
:100AE00084FF00210846FFF780FF00211020FFF758
:100AF0007CFF002505E001210020FFF776FF681C40
:100B0000C5B2802DF7DB601CC4B2082CE4DB70BDDD
:100B100070B5002418E004F1B0000021FFF765FF74
:100B200000210846FFF761FF00211020FFF75DFF5D
:100B3000002505E001210846FFF757FF681CC5B2F4
:100B4000802DF7DB601CC4B2082CE4DB70BD2DE9FE
:100B5000F04707460E469046994600250024A8F126
:100B60002000C5B27F2F02DD0027B01CC6B2B9F14C
:100B7000100F24D131463846FFF77BFF002408E0F0
:100B800004EB05114F4A505C0121FFF72EFF601C5A
:100B9000C4B2082CF4DB701CC1B23846FFF769FF01
:100BA000002409E004EB05110831464A505C01219C
:100BB000FFF71BFF601CC4B2082CF3DB12E03146C8
:100BC0003846FFF756FF00240AE005EB45013E4A90
:100BD00002EB4101085D0121FFF707FF601CC4B271
:100BE000062CF2DBBDE8F08710B50246012000E0DC
:100BF00050430B00A1F10104E1B2F9D110BD2DE980
:100C0000FF5F074691461E460E9D4FF0000A0024E6
:100C100035E0301B401EC1B20A20FFF7E5FFB9FBEB
:100C2000F0F00A21B0FBF1F201FB1208BAF1000F5B
:100C300014D1701EA04211DDB8F1000F0CD1AB46EB
:100C400005EBDB71491001FB0471C8B22B46202271
:100C50000199FFF77CFF10E04FF0010AAB4605EB6E
:100C6000DB71491001FB0471C8B208F13001CAB24E
:100C70002B460199FFF76BFF00BF601CC4B2B44262
:100C8000C7DBBDE8FF9F2DE9F04104460F4615463E
:100C9000984600260FE0AA5D434639462046FFF7F6
:100CA00056FF04F10800C4B2782C02DD0024B81C01
:100CB000C7B2701CC6B2A85D0028ECD1BDE8F081B7
:100CC000000C014018540008F05100082DE9F041D3
:100CD00080460E461546002731464046FFF7C9FEBE
:100CE00000240AE07F4A02EB8511085D0121FFF72D
:100CF0007CFE781CC7B2601CC4B2102CF2DB701CE6
:100D0000C1B24046FFF7B5FE00240CE06900491C63
:100D1000744A02EB4111085D0121FFF766FE781C61
:100D2000C7B2601CC4B2102CF0DBBDE8F0812DE925
:100D3000F05F06460F4690461C46DDF828A04FF0AF
:100D4000000BE11704EB5171C910A4EBC10131B9DB
:100D50002046E11704EB5171C1F3C70506E02046B8
:100D6000E11704EB5171C910491CCDB23D4615E0A5
:100D700029463046FFF77DFEB1460BE059460BF1A0
:100D8000010B1AF801000121FFF72FFE09F1010004
:100D900000F0FF09C145F1DB681CC5B2A542E7DBE5
:100DA000BDE8F09F08B50121082001F081FB4FF458
:100DB0008060ADF8000010208DF8030003208DF84E
:100DC00002006946484801F0B7F84FF48061464890
:100DD00001F05FF90121082001F06AFB4FF4006087
:100DE000ADF8000010208DF8030003208DF80200FC
:100DF00069463D4801F0A0F84FF400613A4801F01F
:100E000048F94FF4487000F044FE0021AE20FFF78F
:100E1000ECFD00210846FFF7E8FD00211020FFF758
:100E2000E4FD00214020FFF7E0FD0021B020FFF7A6
:100E3000DCFD00218120FFF7D8FD0021FF20FFF716
:100E4000D4FD0021A120FFF7D0FD0021A620FFF74F
:100E5000CCFD0021A820FFF7C8FD00213F20FFF7AF
:100E6000C4FD0021C820FFF7C0FD0021D320FFF7FB
:100E7000BCFD00210846FFF7B8FD0021D520FFF793
:100E8000B4FD00218020FFF7B0FD0021D820FFF73E
:100E9000ACFD00210520FFF7A8FD0021D920FFF7B8
:100EA000A4FD0021F120FFF7A0FD0021DA20FFF7CB
:100EB0009CFD00211220FFF798FD0021DB20FFF7A9
:100EC00094FD00213020FFF790FD00218D20FFF7D9
:100ED0008CFD00211420FFF788FD0021AF20FFF7D3
:100EE00084FD08BD25000020000C01407FB50546AB
:100EF0000C460121022001F0E8FAA8B2ADF8080082
:100F0000A0B2ADF804000020ADF80A00ADF806006C
:100F100001A9184801F008FE01221146154802F007
:100F20007AF91D208DF8000000208DF801000320C3
:100F30008DF8020001208DF80300684600F033FFB1
:100F400001210C4802F04CF97FBD10B50121094880
:100F500002F00FFC60B10121064802F01BFC0648BC
:100F6000008828B10548007810B9012003490870AD
:100F700010BD000000040040C6020020C80200208E
:100F80002DE9F04105460E46144600F061FC690665
:100F9000080E00F0EAFC00F08EFC304600F0E5FCA4
:100FA00000F089FC2712384600F0DFFC00F083FCDB
:100FB000E7B2384600F0D9FC00F07DFC00F05FFCA1
:100FC000BDE8F08170B504460D4600F041FC6106B5
:100FD000080E00F0CAFC00F06EFC284600F0C5FCCC
:100FE00000F069FC00F034FC012101EB4401C8B2BF
:100FF00000F0BBFC00F05FFC012000F0D8FC060212
:10100000002000F0D4FC064300F039FC304670BDEF
:101010002DE9F05F81468A466427B9F1000F09D0B7
:10102000B9F1010F0AD0B9F1020F0BD0B9F1030FDA
:1010300010D10BE00024012508260BE00224032533
:10104000042607E004240525022603E006240725DC
:10105000012600BF00BF18212A20FFF7B3FF8046FA
:1010600006E018212A20FFF7ADFF8046781E07B260
:101070001FB108EA06000028F3D087B121462A20D4
:10108000FFF7A0FF4FEA004B29462A20FFF79AFFFF
:1010900040EA0B0BCAF800B00120BDE8F09F002029
:1010A000FBE770B505460C46FF2C00DC70BD35B182
:1010B000012D0AD0022D0ED0032D18D111E02246A9
:1010C00008212A20FFF75CFF11E0224609212A208F
:1010D000FFF756FF0BE022460A212A20FFF750FFB8
:1010E00005E022460B212A20FFF74AFF00BF00BF80
:1010F00000BFDBE770B505460C4635B1012D0AD0BF
:10110000022D0ED0032D18D111E0224610212A20E5
:10111000FFF736FF11E0224611212A20FFF730FFAA
:101120000BE0224612212A20FFF72AFF05E0224683
:1011300013212A20FFF724FF00BF00BF70BD2DE957
:10114000F04704460D4616464FF000094FF6FF7073
:1011500000EA0530C6F3090140EA0109FB480555DC
:10116000304603F0B1FD07463A460B460020F849E9
:1011700003F052FCF74A02EBC40203C234B1012C63
:101180000AD0022C0ED0032C18D111E04A461421AB
:101190002A20FFF7F5FE11E04A4615212A20FFF725
:1011A000EFFE0BE04A4616212A20FFF7E9FE05E094
:1011B0004A4617212A20FFF7E3FE00BF00BFBDE823
:1011C000F08770B5054600241A212A20FFF7FAFEA1
:1011D00004464FF67F7004400DB144F0800422466F
:1011E0001A212A20FFF7CCFE19212A20FFF7EAFE58
:1011F00004464FF6FE7004400DB144F0010422464F
:1012000019212A20FFF7BCFE70BD70B505460024E9
:101210001A212A20FFF7D6FE0446C4F30D044FF628
:10122000FF7000EA8530044322461A212A20FFF786
:10123000A7FE70BD70B5054600241A212A20FFF7CD
:10124000C1FE04464DF6FF7004400DB144F4005455
:1012500022461A212A20FFF793FE70BD70B505467D
:1012600000241A212A20FFF7ADFE04464FF2FF703A
:1012700004400DB144F4006422461A212A20FFF7ED
:101280007FFE70BD70B5054600241A212A20FFF7A5
:1012900099FE04464FF6FF5004400DB144F400742B
:1012A00022461A212A20FFF76BFE70BD70B5054655
:1012B00000241A212A20FFF785FE04464FF6BF704E
:1012C00004400DB144F0400422461A212A20FFF7C1
:1012D00057FE70BD2DE9F04104460E461546002725
:1012E0003CB1E00340EA463040F40270284387B244
:1012F00001E045F402773A461B212A20FFF740FE21
:10130000BDE8F08110B54FF400421C212A20FFF700
:1013100037FE10BD70B504460D4600264FF6FF702F
:1013200000EAC52634B1012C0AD0022C0ED0032CC1
:1013300018D111E032461E212A20FFF721FE11E0CC
:1013400032461F212A20FFF71BFE0BE032462021E8
:101350002A20FFF715FE05E0324621212A20FFF75B
:101360000FFE00BF00BF70BD2DE9F04F87B0824671
:101370008B4600BF584603F0A7FC80468946734958
:1013800011F80A0003F0A0FC0446724800EBCA0002
:10139000D0E900633246204603F0AAFC42464B46A1
:1013A000CDE9000103F0A4FC00226B4BCDE9020162
:1013B00003F032FBCDE90401DDE9040107B0BDE82B
:1013C000F08F2DE9F04F8DB004460D4692469B46B6
:1013D00000BF584603F074FE604A614BCDE9080136
:1013E0002046294603F084FC5C4A5D4BCDE90201AE
:1013F0002046294603F07CFCCDE90001504603F06D
:101400005FFE0646DDE9002303F072FC8046DDE95D
:10141000022303F06DFC02460B46CDE9040151485E
:10142000514903F0F9FACDE90601DDE9082303F09B
:101430005DFDCDE90A01DDE90A010DB0BDE8F08FDF
:1014400010B500247F212A20FFF7BCFD044643F29B
:101450005500844262D1FFF755FF42F2107100201F
:10146000FFF71FFE42F210710120FFF71AFE42F251
:1014700010710220FFF715FE42F210710320FFF7F2
:1014800010FEC8210020FFF735FEC8210120FFF71C
:1014900031FEC8210220FFF72DFEC8210320FFF7EF
:1014A00029FE012202210020FFF749FE012202212C
:1014B0001046FFF744FE012202210846FFF73FFED7
:1014C000012202210320FFF73AFE0020FFF779FEF8
:1014D0000020FFF7C3FE0120FFF7D4FE0020FFF736
:1014E000E5FE052202210120FFF7F4FE0B2100207A
:1014F000FFF710FF0B210120FFF70CFF0B2102204B
:10150000FFF708FF0B210320FFF704FF0020FFF780
:1015100091FE642000F0BDFA002010BD0120FCE720
:101520002DE9F04794B081460D460024A2460026DE
:101530000027A04600BF20E029464846FFF768FD87
:10154000012813D128684DF8240011E0A8020020DA
:10155000D0128341E00200200000B0414AD8124D71
:10156000FB21194000C84E676DC1AB43601E84B2B9
:10157000642000F06AFA601C84B2132CDCDD009E4B
:10158000009FDDF80080012410E05DF82400B842DF
:1015900001DD5DF824705DF82400404501DA5DF856
:1015A00024805DF824000644601C84B2132CECDD1A
:1015B000F01BA0EB0800122190FBF1FA504614B08A
:1015C000BDE8F0872DE9FC5F824616461F46DDE93F
:1015D0000C8900210C460D46BAF1000F09D0BAF172
:1015E000010F28D0BAF1020F48D0BAF1030F21D170
:1015F00067E048490020FFF793FF46490860084626
:1016000001680020FFF7B0FE434A03C24046494646
:1016100003F028F901903046394603F023F9009091
:101620003D48D0E900B15846DDE90023FFF7C9FE87
:1016300004460D4668E039490120FFF771FF37493C
:101640000860084601680120FFF78EFE324AC2E9B1
:1016500002014046494603F005F9019030463946FB
:1016600003F000F92C490090D1E902B10246584636
:10167000019BFFF7A6FE04460D4645E028490220DF
:10168000FFF74EFF26490860084601680220FFF771
:101690006BFE214AC2E904014046494603F0E2F8E4
:1016A00001903046394603F0DDF800901A48D0E941
:1016B00004B15846DDE90023FFF783FE04460D46DA
:1016C00022E018490320FFF72BFF1649086008465F
:1016D00001680320FFF748FE0F4AC2E906014046B1
:1016E000494603F0BFF801903046394603F0BAF896
:1016F00000900948D0E906B15846DDE90023FFF71C
:1017000060FE04460D4600BF00BF20462946BDE8E6
:10171000FC9F0000AC02002000030020B00200206B
:10172000B4020020B802002008B548208DF803005C
:101730008020ADF8000003208DF802006946B34810
:1017400000F0FAFB08BD08B510208DF803008020DA
:10175000ADF8000003208DF802006946AB4800F0A8
:10176000EBFB08BD08B50121082000F0A1FE4020D8
:10177000ADF8000010208DF8030003208DF8020062
:101780006946A24800F0D8FB4021A04800F081FC47
:101790000121082000F08CFE8020ADF80000102010
:1017A0008DF8030003208DF802006946974800F089
:1017B000C3FB8021954800F06CFC4021934800F069
:1017C00068FC08BD002000BF3FE000BF00BF00BFB5
:1017D00000BF00BF00BF00BF00BF00BF00BF00BF11
:1017E00000BF00BF00BF00BF00BF00BF00BF00BF01
:1017F00000BF00BF00BF00BF00BF00BF00BF00BFF1
:1018000000BF00BF00BF00BF00BF00BF00BF00BFE0
:1018100000BF00BF00BF00BF00BF00BF00BF00BFD0
:1018200000BF00BF00BF00BF00BF00BF00BF00BFC0
:1018300000BF00BF00BF00BF00BF00BF00BF00BFB0
:1018400000BF00BF00BF00BF401C0228BDD37047CF
:1018500010B5FFF778FF01206D4908606D49C1F8A8
:101860009801FFF7AFFF002069490860FFF7AAFF62
:1018700000206849C1F89801FFF7A4FF10BD10B51A
:10188000FFF761FF00206249091F0860FFF79AFF18
:1018900000206049C1F89C01FFF794FF01205C49DA
:1018A000091F0860FFF78EFF01205A49C1F89C010B
:1018B000FFF788FF10BD10B50024FFF735FF0120AA
:1018C00053490860FFF77EFF01205249C1F8980193
:1018D000FFF778FF07E0601CC4B2FA2C03DDFFF7C6
:1018E000CEFF012010BD4A48803800680028F2D1A0
:1018F0004749091F086000BFF4E710B500204449BC
:10190000091F0860FFF75EFFFFF71DFF0020414938
:10191000C1F89C01FFF756FF01203D49091F0860EF
:10192000FFF750FF00203B49C1F89801FFF74AFF3D
:1019300010BD10B500203649091F0860FFF742FFAF
:10194000FFF701FF01203349C1F89C01FFF73AFF7F
:1019500001202F49091F0860FFF734FF00202D499F
:10196000C1F89801FFF72EFF10BD70B50446FFF7D0
:10197000EAFE00202649091F0860002514E0FFF751
:1019800021FFE009224908606006040E0120214978
:10199000C1F89801FFF716FF00201D49091F0860D4
:1019A000FFF710FF681CC5B2082DE8DB70BD70B5ED
:1019B00005460024012016490860FFF7B5FE002601
:1019C00015E06006040E00201149091F0860FFF7AA
:1019D000F9FE01200F49C1F89801FFF7F3FE0C480A
:1019E0008038006808B1601CC4B2701CC6B2082EF2
:1019F000E7DB00200649091F086015B9FFF799FFCA
:101A000001E0FFF77AFF204670BD0000000C0140A6
:101A10009C8121420080214210B56FF0040000F04B
:101A20000CFA2E4800682E49B0FBF1F02D490870E1
:101A30000846007800EB4001C1EBC0104FF6FF7183
:101A400001EAC0002849088010BD0146254A1278E5
:101A50004A434FF0E0235A6100229A611A46126904
:101A600042F001021A6100BF4FF0E022106900F05D
:101A700001021AB100F48032002AF5D04FF0E022C2
:101A8000126922F001024FF0E0231A6100229A61EC
:101A900070470146144A12884A434FF0E0235A61C6
:101AA00000229A611A46126942F001021A6100BFCF
:101AB0004FF0E022106900F001021AB100F4803208
:101AC000002AF5D04FF0E022126922F001024FF017
:101AD000E0231A6100229A61704700001000002084
:101AE00000127A00BC020020BE020020014600BFA6
:101AF000704700BF934A128802F04002002AF9D0D2
:101B0000C2B2904B1B1D1A80704710B586B00446B8
:101B1000012144F2040000F0CBFC4FF40070ADF85A
:101B2000140003208DF8160018208DF8170005A961
:101B3000854800F001FA4FF48060ADF814000420ED
:101B40008DF8170005A9804800F0F6F925208DF8DA
:101B5000000003208DF801008DF8020001208DF8AF
:101B60000300684600F01FF901940020ADF808005A
:101B7000ADF80A00ADF80C00ADF810000C20ADF87F
:101B80000E0001A96F4800F03AFD012240F22551F4
:101B90006C4800F0CCFD01216A4800F0BCFD6B49A7
:101BA0006320FFF7A3F906B010BD70B505460E46D9
:101BB00000240CE000BF4021624800F087FE0028AE
:101BC000F9D0295D5F4800F013FE601C84B2B44276
:101BD000F0DB00BF40215B4800F078FE0028F9D020
:101BE00070BD10B586B004460121042000F060FCF1
:101BF0000121480400F069FC0420ADF8140018200D
:101C00008DF8170005A9504800F096F90820ADF8A6
:101C1000140004208DF8170005A94B4800F08CF93A
:101C20000121480400F06BFC00214FF4003000F06B
:101C300066FC4FF4A06000F0B1F826208DF800009B
:101C400003208DF801008DF8020001208DF80300BB
:101C5000684600F0A8F801940020ADF80800ADF83F
:101C60000A00ADF80C00ADF810000C20ADF80E0025
:101C700001A9374800F0C3FC012240F22551344845
:101C800000F055FD0121324800F045FD06B010BDC1
:101C900070B505460E4600240CE000BF40212C48DC
:101CA00000F014FE0028F9D0295D294800F0A0FDBD
:101CB000601C84B2B442F0DB00BF4021244800F035
:101CC00005FE0028F9D070BD10B540F225511D4821
:101CD00000F012FE10B31B4800F08EFDC4B21D4888
:101CE000008800F40040C8B91A48008800F4804019
:101CF00060B10A2C03D000201649088020E0154866
:101D0000008840F400401349088019E00D2C06D1EA
:101D10001048008840F480400E49088010E00D48CB
:101D20000088C0F30D000C490C540A480088401C80
:101D30000849088008460088C72801DD002008807F
:101D400010BD000000380140000801403F190100AB
:101D500000440040C40200202003002009488047BE
:101D600009480047FEE7FEE7FEE7FEE7FEE7FEE77D
:101D7000FEE7FEE7FEE7FEE704480549054A064B95
:101D800070470000BB06000831010008480400202D
:101D9000480A002048060020480600203149014337
:101DA000314A1160704770B5002100230F22C478BA
:101DB00004B32D4C246804F4E064C4F5E064210A03
:101DC000C1F10403CA40447804FA03F18478144052
:101DD00021430901254C0678A155047804F01F051C
:101DE0000124AC4005786D11AD0005F1E025C5F882
:101DF000004109E0047804F01F050124AC401C4DAB
:101E00000678761145F8264070BD1A4A0A4002430A
:101E1000154B1B1F1A60704739B1134A121D126807
:101E20000243114B1B1D1A6006E00F4A121D126877
:101E300082430D4B1B1D1A607047042808D14FF0D8
:101E4000E021096941F004014FF0E022116107E04F
:101E50004FF0E021096921F004014FF0E022116107
:101E6000704700000000FA050CED00E000E400E01F
:101E700080E100E080FFFF1F10B50446CC4884429B
:101E800008D10121042000F02DFB0021042000F0E6
:101E900029FB46E0C748844208D10121082000F010
:101EA00021FB0021082000F01DFB3AE0C2488442DB
:101EB00008D10121102000F015FB0021102000F0B6
:101EC00011FB2EE0BD48844208D10121202000F002
:101ED00009FB0021202000F005FB22E0B8488442E5
:101EE00008D10121402000F0FDFA0021402000F03F
:101EF000F9FA16E0B348844208D10121802000F0AD
:101F0000F1FA0021802000F0EDFA0AE0AE488442A8
:101F100007D10121801500F0E5FA0021A01500F09D
:101F2000E1FA10BD10B50121084600F0DBFA0021EE
:101F3000012000F0D7FA10BD2DE9F041024600253E
:101F40000026002000230024002791F803C00CF095
:101F50000F0591F803C00CF0100CBCF1000F03D07A
:101F600091F802C04CEA050591F800C0BCF1000FE1
:101F700031D0146800202BE04FF0010C0CFA00F374
:101F8000B1F800C00CEA03069E4220D183004FF056
:101F90000F0C0CFA03F7BC4305FA03FC4CEA0404EB
:101FA00091F803C0BCF1280F06D14FF0010C0CFAD8
:101FB00000FCC2F814C00AE091F803C0BCF1480F5D
:101FC00005D14FF0010C0CFA00FCC2F810C0401C07
:101FD0000828D1D31460B1F800C0BCF1FF0F34DD84
:101FE000546800202EE000F1080C4FF0010808FAB8
:101FF0000CF3B1F800C00CEA03069E4221D1830025
:102000004FF00F0C0CFA03F7BC4305FA03FC4CEA43
:10201000040491F803C0BCF1280F05D100F1080CAD
:1020200008FA0CF8C2F8148091F803C0BCF1480F0C
:1020300007D100F1080C4FF0010808FA0CF8C2F8BB
:102040001080401C0828CED35460BDE8F0814FF6C4
:10205000FF710180022181700421C1707047024626
:10206000002093680B400BB1012000E00020704776
:102070000146886880B2704702460020D3680B4052
:102080000BB1012000E0002070470146C86880B213
:10209000704701617047416170470AB1016100E01A
:1020A00041617047C16070474FF480320A438261DA
:1020B0008161826182698269704702460020434BD8
:1020C00018684FF68073184040EA021008433F4BEF
:1020D000186070473E49C8617047F0B50A46002352
:1020E00000240021002500F00046B6F1004F02D187
:1020F000364EF16901E0354E7168C0F3034583B295
:1021000000F44016B6F5401F08D121F070612F4E43
:10211000766826F070662D4F7E6012E000F480161F
:10212000B6F5801F06D1032606FA05F4A14341F057
:10213000706106E0460D360103FA06F6B14341F040
:10214000706122B1460D360103FA06F6314300F004
:102150000046B6F1004F02D11C4EF16101E01B4E6A
:102160007160F0BD30B500228B071C0F0F2303FAFE
:1021700004F2164B08338C1053F824309343134C5D
:1021800008348D1044F8253023468C1053F8243041
:102190008C07240F00FA04F423430C4C08348D10F0
:1021A00044F8253030BD0A49DC3108607047000032
:1021B00000080140000C01400010014000140140E3
:1021C00000180140001C01400020014000000140B7
:1021D00000002042DF48006840F00100DD4908604F
:1021E00008464068DC490840DA494860084600680B
:1021F000DA490840D74908600846006820F4802082
:1022000008600846406820F4FE0048604FF41F0054
:1022100088607047CF49096821F48031CD4A116048
:102220001146096821F480211160B0F5803F03D088
:10223000B0F5802F0ED106E0C649096841F480311F
:10224000C44A116007E0C349096841F4A021C14AAA
:10225000116000E000BF00BF704710B501460022CA
:10226000002300204A11012A02D1BA4C236806E05B
:10227000022A02D1B74C236A01E0B64C636A01F02E
:102280001F02012494401C400CB1012000E00020FA
:1022900010BD38B5002000900024002500BF31207B
:1022A000FFF7DBFF05460098401C00900098B0F552
:1022B000A06F01D0002DF2D03120FFF7CEFF08B182
:1022C000012400E00024204638BD01460020A14A38
:1022D000106820F0F80040EAC10010607047A04983
:1022E00008607047024600209A4B586820F47C1022
:1022F00042EA01031843974B5860704798490866B3
:10230000704701460020934A506820F003000843BC
:10231000506070478F48406800F00C0070470146DD
:1023200000208C4A506820F0F0000843506070474D
:1023300001460020874A506820F4E060084350605E
:10234000704701460020834A506820F4605040EAFC
:10235000C1005060704729B17E4A527A02437D4BDA
:102360005A7204E07B4A527A82437A4B5A7270471F
:102370007B49D8310860704701460020754A506893
:1023800020F440400843506070470021714A2032D9
:102390001170704A82F82010012802D004280AD156
:1023A00004E001216B4A2032117005E00521694AE1
:1023B0002032117000E000BF00BF7047694908601B
:1023C00070476449096A0143624A1162704765496E
:1023D00044390860704730B50021002200240023F2
:1023E0005C4D6D6805F00C0121B1042905D0082968
:1023F00023D105E05C4D056022E05B4D05601FE0E8
:10240000544D6D6805F47012524D6D6805F48034BA
:10241000022505EB92421CB9544D554305600BE073
:102420004C4D6D6805F400351DB1504D55430560A8
:1024300002E04D4D5543056002E04B4D056000BF85
:1024400000BF444D6D6805F0F0010909484D6B5C13
:102450000568DD4045603F4D6D6805F4E061090A9F
:10246000434D6B5C4568DD4085603A4D6D6805F411
:102470006051C90A3E4D6B5C4568DD40C560354D15
:102480006D6805F44041890B3A4D6B5CC568B5FB3E
:10249000F3F5056130BD29B12E4A526902432D4B37
:1024A0005A6104E02B4A526982432A4B5A617047B1
:1024B00029B1284A92690243264B9A6104E0254AD1
:1024C00092698243234B9A61704729B1214AD269AC
:1024D0000243204BDA6104E01E4AD26982431D4B5D
:1024E000DA61704729B11B4AD2680243194BDA609E
:1024F00004E0184AD2688243164BDA60704729B16B
:10250000144A12690243134B1A6104E0114A12691A
:102510008243104B1A617047124940390860704776
:102520000F49C86470470B49C87170470948406A31
:1025300040F0807007494862704701460020054A14
:1025400092680A400AB1012000E00020704701496A
:1025500088727047001002400000FFF8FFFFF6FE8F
:10256000000042428004424200127A0000093D000D
:10257000C9020020D902002010B50446FB4884425D
:1025800009D101218803FFF7ADFF00214FF48040FE
:10259000FFF7A8FF32E0F648844209D10121480440
:1025A000FFF7ADFF00214FF40030FFF7A8FF25E053
:1025B000F048844209D101218804FFF7A0FF0021DF
:1025C0004FF48020FFF79BFF18E0EB48844209D1CD
:1025D0000121C804FFF793FF00214FF40020FFF70B
:1025E0008EFF0BE0E548844208D101210805FFF782
:1025F00086FF00214FF48010FFF781FF10BD2DE909
:10260000F04786B005460E460024A24600BFA1460C
:102610000027B08900B100BF2F462C8A4CF6FF700E
:102620000440F08804432C82AC894EF6F310044039
:10263000B08831890843718908430443AC81AC8A6E
:102640004FF6FF400440B0890443AC8201A8FFF775
:10265000C2FEC648874202D1DDF810A001E0DDF8D5
:102660000CA0A88900F4004040B10AEBCA0000EBBE
:102670000A1031684900B0FBF1F807E00AEBCA0024
:1026800000EB0A1031688900B0FBF1F86420B8FB58
:10269000F0F004012009642101FB1089A88900F4ED
:1026A000004040B1322000EBC900B0FBF1F000F077
:1026B0000700044308E0322000EB09106421B0FB5E
:1026C000F1F000F00F0004432C8106B0BDE8F08764
:1026D0004FF41651016000218180C18001810C21DD
:1026E000418100218181704710B502460020108A87
:1026F0004FF2FF0318400B884C8823438C882343F8
:10270000CC8823431843108210BD002101804180F2
:102710008180C180704721B1828942F40052828158
:1027200004E082894DF6FF731A4082817047F0B54C
:102730000346002400260025002040F66A17B9420F
:1027400000D100BF1846C1F3421401F01F06012753
:1027500007FA06F5012C01D10C3004E0022C01D15E
:10276000103000E014301AB107682F43076002E010
:102770000768AF430760F0BD1AB1838A0B438382B9
:1027800002E0838A8B4383827047028A4FF6F0739C
:102790001A400282028A0A430282704782894FF2FB
:1027A000FF731A40828182890A438281704721B176
:1027B000828942F00202828104E082894FF6FD7331
:1027C0001A4082817047028A4FF6DF731A400282F4
:1027D000028A0A430282704721B1028A42F480428F
:1027E000028204E0028A4BF6FF731A4002827047AD
:1027F000C1F308028280704701468888C0F3080050
:102800007047818941F0010181817047028BD2B20A
:102810000283028B42EA012202837047028B02F498
:102820007F420283028B0A430283704721B1828A6E
:1028300042F02002828204E0828A4FF6DF731A405F
:102840008282704721B1828A42F01002828204E0C3
:10285000828A4FF6EF731A408282704721B1828AD2
:1028600042F00802828204E0828A4FF6F7731A402F
:102870008282704721B1828942F40042828103E062
:102880008289C2F30E028281704721B1828A42F4AA
:102890000062828204E0828A4FF2FF731A408282D1
:1028A0007047828A4FF6FB731A408282828A0A43FB
:1028B0008282704721B1828A42F00202828204E061
:1028C000828A4FF6FD731A408282704702460020CA
:1028D000B1F5007F00D100BF13880B400BB1012080
:1028E00000E00020704701F40072B2F5007F00D1D3
:1028F00000BFCA430280704770B50246002400231F
:102900000025002040F66A16B14200D100BFC1F395
:10291000421501F01F03012606FA03F3012D02D12F
:102920009689334006E0022D02D1168A334001E039
:10293000968A33400C12012606FA04F416883440B5
:1029400013B10CB1012000E0002070BD10B50022D1
:10295000002340F66A14A14200D100BF0A120124EC
:102960009440A3B2DC43048010BD00000038014055
:102970000044004000480040004C0040005000402F
:1029800010B50446FE48844208D10121C014FFF767
:10299000A9FD0021E014FFF7A5FDC4E0B4F1804FCC
:1029A00008D101210846FFF7AAFD00210120FFF709
:1029B000A6FDB8E0F348844208D101210220FFF7C8
:1029C0009EFD00210220FFF79AFDACE0EE48844214
:1029D00008D101210420FFF792FD00210420FFF718
:1029E0008EFDA0E0E948844208D101210820FFF7CC
:1029F00086FD00210820FFF782FD94E0E448844230
:102A000008D101211020FFF77AFD00211020FFF7E7
:102A100076FD88E0DF48844208D101212020FFF7BD
:102A20006EFD00212020FFF76AFD7CE0DA48844239
:102A300008D101214014FFF755FD00216014FFF774
:102A400051FD70E0D548844209D10121C804FFF747
:102A500049FD00214FF40020FFF744FD63E0D0481A
:102A6000844209D101210805FFF73CFD00214FF404
:102A70008010FFF737FD56E0CA48844209D1012192
:102A80004805FFF72FFD00214FF40010FFF72AFD46
:102A900049E0C548844208D101214020FFF72FFDBD
:102AA00000214020FFF72BFD3DE0C048844208D1C3
:102AB00001218020FFF723FD00218020FFF71FFD6B
:102AC00031E0BB48844208D101218015FFF717FD92
:102AD0000021A015FFF713FD25E0B648844209D177
:102AE00001210804FFF7FEFC00214FF48030FFF7BE
:102AF000F9FC18E0B048844209D101214804FFF7ED
:102B0000F1FC00214FF40030FFF7ECFC0BE0AB4888
:102B1000844208D101218804FFF7E4FC00214FF42E
:102B20008020FFF7DFFC10BD00220288944B984202
:102B30000ED0994B98420BD0B0F1804F08D0914BFA
:102B4000984205D0904B984202D0904B984204D1C5
:102B50004FF68F731A404B881A438D4B984207D01B
:102B60008C4B984204D04FF6FF431A40CB881A434F
:102B700002808B8883850B880385814B98420BD01C
:102B8000854B984208D08B4B984205D08A4B98428F
:102B900002D08A4B984201D10B7A038601238382AB
:102BA000704770B5002400220023058C4FF6FE7696
:102BB00035400584028C8388048B4FF68F752C403A
:102BC000B51E2C400D882C43751E2A400D892A43C2
:102BD0004D882A436A4DA8420BD06F4DA84208D0B9
:102BE000744DA84205D0744DA84202D0734DA8423E
:102BF00013D14FF6F7752A404D892A434FF6FB75DE
:102C00002A408D882A434FF6FF652B404FF6FF552B
:102C10002B408D892B43CD892B4383800483CD8822
:102C20008586028470BD70B5002400220023058CC7
:102C30004FF6EF7635400584028C8388048B48F686
:102C4000FF752C404FF6FF452C400D884FF6FF7660
:102C500006EA05252C434FF6DF752A400D8906EA62
:102C600005152A434D8806EA05152A43444DA84216
:102C700002D0494DA8421DD14FF67F752A404D899B
:102C80004FF6FF7606EA05152A434FF6BF752A4030
:102C90008D8806EA05152A434FF6FF352B404FF283
:102CA000FF752B408D8906EA85052B43CD8906EA01
:102CB00085052B4383800483CD880587028470BDFE
:102CC00070B5002400220023058C4FF6FF663540C6
:102CD0000584028C8388848B4FF68F752C404FF6C9
:102CE000FC752C400D882C434FF6FF552A400D896A
:102CF0004FF6FF7606EA05252A434D8806EA0525A4
:102D00002A431F4DA84202D0234DA8421DD14FF2A5
:102D1000FF752A404D894FF6FF7606EA05252A43BE
:102D20004FF6FF352A408D8806EA05252A434EF6E0
:102D3000FF752B404DF6FF752B408D8906EA051572
:102D40002B43CD8906EA05152B4383808483CD88E8
:102D50008587028470BD70B5002200230024058C95
:102D60004EF6FF7635400584038C8488828B48F6C6
:102D7000FF752A404FF6FF452A400D8820E00000ED
:102D8000002C01400004004000080040000C0040FE
:102D9000001000400014004000340140004C01408D
:102DA000005001400054014000180040001C004049
:102DB0000020004000400140004401400048014024
:102DC0004FF6FF7606EA05252A434DF6FF752B40A0
:102DD0000D8906EA05352B434D8806EA05352B4358
:102DE000FA4DA84202D0FA4DA84208D14BF6FF7521
:102DF0002C408D894FF6FF7606EA85152C4384809A
:102E00008283CD88A0F84050038470BD828B4FF23E
:102E1000FF331A408283828B4FF6FF7303EA01234C
:102E20001A4382837047F0B50C46154600220021F4
:102E30000026078C4EF6FF7C07EA0C070784828B7E
:102E4000018C4FF6FF7707EA043640F6FF473A4019
:102E50004FF6FF7707EA05273A434FF6FF7707EA71
:102E600003373A43D94FB8420ED0D94FB8420BD0AE
:102E7000B0F1804F08D0D74FB84205D0D64FB842F6
:102E800002D0D64FB84206D14DF6FF77394046F40E
:102E90008057394305E047F6FF57394044F48057DF
:102EA000394382830184F0BD828B4FF6F3731A405D
:102EB0008283828B0A4382837047F0B50C461546A5
:102EC000002200210026078C4FF6FF6C07EA0C0752
:102ED0000784828B018C4FF6FF7707EA04264FF6B2
:102EE0000C773A404FF6FF7707EA03172F433A4330
:102EF000B64FB8420ED0B64FB8420BD0B0F1804FAB
:102F000008D0B44FB84205D0B34FB84202D0B34F47
:102F1000B84206D14FF6FF57394046F4807739431F
:102F200005E04FF2FF57394044F4807739438283FC
:102F30000184F0BD028B4FF2FF331A400283028BF3
:102F40004FF6FF7303EA01231A4302837047F0B57B
:102F50000C461546002200210026078C4FF6EF7C18
:102F600007EA0C070784028B018C4FF6FF7707EA0C
:102F7000041640F6FF473A404FF6FF7707EA03375B
:102F80003A434FF6FF7707EA05273A438F4FB84297
:102F90000ED08F4FB8420BD0B0F1804F08D08D4F7C
:102FA000B84205D08C4FB84202D08C4FB84206D1FF
:102FB0004FF6DF77394046F01007394305E04FF60A
:102FC0005F77394044F01007394302830184F0BD34
:102FD000028B4FF6F3731A400283028B0A4302837B
:102FE0007047F0B50C46154600220021068C4FF6BE
:102FF000FE773E400684028B018C4FF60C76324001
:103000007E1C06EA03162E433243704EB0420ED0A9
:103010006F4EB0420BD0B0F1804F08D06D4EB04231
:1030200005D06D4EB04202D06C4EB04206D14FF684
:10303000FD76314044F00106314305E04FF6F57668
:10304000314044F00106314302830184F0BD70B584
:1030500005460C465D4885420ED05D4885420BD042
:10306000B5F1804F08D05B48854205D05A4885426B
:1030700002D05A48854200D100E000BF208850B9F4
:103080002389A28861882846FFF7ABFFE18828469C
:10309000FFF79EFF25E0208804280AD12389A28813
:1030A00061882846FFF753FFE1882846FFF742FF73
:1030B00017E0208808280AD12389A2886188284639
:1030C000FFF7FBFEE1882846FFF7EEFE09E02389C3
:1030D000A28861882846FFF7A6FEE1882846FFF708
:1030E00095FE70BD2DE9F04105460C4600260127EE
:1030F000608808B9022600E00026A088012801D1D6
:10310000022700E001272088A0B92389A2886188CE
:103110002846FFF766FFE1882846FFF759FF238915
:103120003A4631462846FFF712FFE1882846FFF766
:1031300001FF13E02389A28861882846FFF707FF73
:10314000E1882846FFF7F6FE23893A4631462846AD
:10315000FFF747FFE1882846FFF73AFFBDE8F08117
:103160000A884B881A438B881A43CB881A430B89E9
:103170001A434B891A438B891A43A0F8442070479D
:103180004FF6FF71818000210180C1804180017272
:1031900070470021018041808180C180018141818F
:1031A0008181C1817047002101804180012181809E
:1031B0000021C18001817047002101804180818010
:1031C000C18001814181818170470000002C014054
:1031D000003401400004004000080040000C0040A2
:1031E00021B1028842F00102028004E002884FF619
:1031F000FE731A400280704731B1B0F8442042F4A7
:103200000042A0F8442005E0B0F84420C2F30E02CA
:10321000A0F8442070471AB183890B43838102E0F0
:1032200083898B43838170478182704741EA02031F
:10323000A0F8483070471AB183890B43838102E0BC
:1032400083898B438381704701894FF6F87211405F
:10325000018170470A46002101894FF68F7319409A
:1032600011430181704730B504460D46294620467A
:10327000FFF7F0FF208940F00700208130BD2DE9E5
:10328000F04104460D4616461F46602D06D13B46CA
:10329000012231462046FFF75AFE05E03B46012257
:1032A00031462046FFF79DFE29462046FFF7D2FF14
:1032B000208940F007002081BDE8F08130B50C4640
:1032C00000210189C9B24FF6FF7505EA03251543B0
:1032D00025432943018130BD2DE9F04105460E46C5
:1032E00017469846002443463A4631462846FFF79B
:1032F000E5FF2C894FF6F870044044F007044FF6C0
:103300008F70044044F070042C81BDE8F081F0B56A
:1033100004460D4616461F463B4632462946204681
:10332000FFF7CCFF208940F480402081F0BD01856B
:10333000828270470A46002101884FF68F73194038
:10334000114301807047F0B50C4615461E4600211A
:10335000002200230189028B038C4FF6F877394055
:1033600021434FF6FC473A4040F201173A434FF6EB
:10337000DD773B404FF6FF7707EA06172F433B43C5
:10338000018102830384F0BD0A460021018B4FF6C0
:103390008F7319401143018370470A460021018B46
:1033A00048F6FF7319404FF6FF7303EA02231943EF
:1033B000018370470A460021818B4FF68F731940B5
:1033C0001143818370470A460021818B48F6FF73C1
:1033D00019404FF6FF7303EA0223194381837047B4
:1033E00021B1028842F08002028004E002884FF698
:1033F0007F731A400280704721B1828842F0040234
:10340000828004E082884FF6FB731A408280704706
:1034100021B1828842F00802828004E082884FF65F
:10342000F7731A408280704721B1828842F001020E
:10343000828004E082884FF6FE731A4082807047D3
:103440000A460021018B4FF6F7731940114301839F
:1034500070470A460021018B4FF2FF7319404FF667
:10346000FF7303EA02231943018370470A460021D0
:10347000818B4FF6F77319401143818370470A46D9
:103480000021818B4FF2FF7319404FF6FF7303EA5F
:1034900002231943818370470A460021018B4FF6AE
:1034A000FB7319401143018370470A460021018BC9
:1034B0004FF6FF3319404FF6FF7303EA0223194317
:1034C000018370470A460021818B4FF6FB73194038
:1034D0001143818370470A460021818B4FF6FF33E9
:1034E00019404FF6FF7303EA0223194381837047A3
:1034F0000A460021018B4FF67F7319401143018367
:1035000070470A460021018BC1F30E014FF6FF738D
:1035100003EA02231943018370470A460021818B85
:103520004FF67F7319401143818370470A4600218B
:10353000818BC1F30E014FF6FF7303EA0223194397
:10354000818370470A460021018C4FF6FD731940B4
:103550001143018470470A460021018C4FF6F7732E
:1035600019401143018470470A460021018C4FF62F
:10357000DF7319404FF6FF7303EA02131943018406
:1035800070470A460021018C4FF67F7319404FF6B1
:10359000FF7303EA02131943018470470A460021AE
:1035A000018C4FF6FF5319404FF6FF7303EA0223D5
:1035B0001943018470470A460021018C4FF2FF73C2
:1035C00019404FF6FF7303EA022319430184704741
:1035D0000A460021018C4DF6FF7319404FF6FF7328
:1035E00003EA023319430184704730B500230124F4
:1035F0008C40A3B2048C9C430484048C02FA01F531
:10360000ADB22C43048430BD30B5002304248C407B
:10361000A3B2048C9C430484048C02FA01F5ADB27D
:103620002C43048430BD70B50346002000241846A6
:10363000183001258D40ACB21D8CA5431D8409B105
:10364000082909D100EB6100056825F070050560C7
:103650000568154305600EE00D1FC5F34E052844AF
:10366000056825F4E045056005684FF6FF7606EA33
:1036700002263543056070BD21B1028842F0020286
:10368000028004E002884FF6FD731A400280704702
:1036900021B1028842F00402028004E002884FF661
:1036A000FB731A400280704721B1828842F0800289
:1036B000828004E082884FF67F731A4082807047D0
:1036C00002884FF6F7731A40028002880A4302808C
:1036D000704782884FF68F731A40828082880A432F
:1036E0008280704702894FF6F8731A40028102897E
:1036F0000A430281704702894FF67F731A400281A4
:1037000002890A430281704781847047818570472E
:10371000818670470187704781877047A0F8401005
:10372000704702884FF6FF431A40028002880A431E
:10373000028070470146888E70470146088F7047A7
:103740000146888F70470146B1F840007047014636
:10375000888C70470146088D704702460020138A06
:103760000B400BB1012000E000207047CA430282E9
:10377000704730B50246002000230024158A05EA70
:103780000103958905EA010413B10CB1012000E0A1
:10379000002030BDCA430282704770470FB404490D
:1037A00010B503AA029800F0F3FA10BC5DF814FB00
:1037B000C002002070B5044685690068C10601D5C5
:1037C000302600E02026C00707D070BDD4E90121D3
:1037D00030469047206A401C20626D1EF6D570BDB1
:1037E00070B5044685690078C00707D170BDD4E97B
:1037F000012120209047206A401C20626D1EF6D5D2
:1038000070BD00002DE9F05F894604464FF0000AC4
:10381000DFF824B1FB44C0F820A02046E1688847C7
:1038200000287DD0252806D0D4E901219047206AC0
:10383000401C2062F1E700255F462046E16888478A
:103840002028064607DB312E05D2B81910F8200CC7
:1038500008B10543F1E7A80701D525F00405C4F830
:103860001CA00027C4F818A02A2E09D0304600F06A
:10387000DCFF38B304EB8708303EC8F8186019E065
:1038800059F8041B204604EB87029161E1688847E0
:10389000012F064618D1E069002820DA25F020051E
:1038A0001DE0D8F8180000EB800006EB400030382F
:1038B000C8F818002046E1688847064600F0B5FFC2
:1038C0000028EED1012F0AD02E2E08D12046E16823
:1038D00088477F1C0646022F45F02005C4DBA069FF
:1038E000002803DA404245F00105A061E80701D055
:1038F00025F01005A6B1A6F14100192802D82036FE
:1039000045F400654A463146204625604D46FCF7A1
:1039100069FC60B1012807D0ED1D25F0070000E02B
:1039200007E000F1080978E705F1040975E730467A
:103930007AE7206ABDE8F09FF021000070477047E9
:103940007047704770472DE9FF4F0C461E464FF0F9
:10395000FF378BB0D2E90001DDF860800A908A461B
:10396000C1F30A5505B93D46002108464FF0000055
:10397000BAF1000F00F4400005DA00EB80004FF4CC
:10398000400101EA50004FEA9059B9F1010F00DD02
:10399000B9460A9850EA4A000ED044F61050A5F2F3
:1039A000FF3545432F14B8F1000F1ED07542291E74
:1039B0001EDDC9F100021CE0B8F1010F4FF000005C
:1039C00001D0302103E0F24305E02154401CB04215
:1039D000FBDB30460022002121540B99C1F80880FE
:1039E000C1E900200FB0BDE8F08FBD1B6D1CDEE704
:1039F0004A4600DA694206A800F066FA06AB93E888
:103A0000070003AB83E8070050460A9900F03EFB2D
:103A10008DE80700A0F500501F3800900398002D96
:103A200009DD42F21F014A46084403A90390684693
:103A300000F09DFD08E0A0F500504A461F3803A99C
:103A40000390684600F0A7FD8DE807000004000C15
:103A500003D04FF0FF30410800E01046B8F1000FEE
:103A600003D00022009215461EE0751E05D400F01A
:103A7000A5F9303262556D1EF9D5B34601220843CF
:103A800002D000227F1C04E02078302801D10022DF
:103A90007F1E002A099786D01DE0112D07DA00F05D
:103AA0008DF9303262556D1C50EA0102F5D10843A0
:103AB00002D00098C8B10EE00021681E05E0235C2A
:103AC000625C63542254401E491C8142F7DBAB46C2
:103AD000A81B401E0990002004F80B000B98099ABF
:103AE000C0F80880C0E9002B7CE711264FF00008E1
:103AF00059E72DE9F04F88460446D21D22F0070110
:103B000091B0D1E90001CDE90A0100F07AFE024648
:103B10000B98C00F01D02D2007E02068810701D548
:103B20002B2002E0202101EAC000032A099001D0E5
:103B3000072A05DB03464146204600F085F90BE1E4
:103B40002078800601D5E06900E00620B8F1650F15
:103B5000814606D0B8F1660F18D0B8F1670F70D162
:103B600031E00020B9F1110F009001DB112301E0D9
:103B700009F101030AAA01A90CA8FFF7E4FEDDE997
:103B80000C70002609F10105834647E001204B46F1
:103B900000904FF000470AAA01A90CA8FFF7D3FE36
:103BA000DDE90DB00C995D46002610B909F1010060
:103BB0000D18B9EB050003D4C0F1FF3609F101057A
:103BC000A5EB09002BE0B9F1010F01DA4FF0010973
:103BD0000020B9F1110F0090484601DD112300E0EB
:103BE00003460AAA01A90CA8FFF7ADFEDDE90C7097
:103BF0004D4600268346207800070AD4AB4500DAFC
:103C00005D4601A8012D04DD411911F8011C302980
:103C100007D04F4502DA17F1040F04DA012082467B
:103C20000FE06D1EEEE7002F02DCED1B3E4403E0CB
:103C3000781CA84200DD7D1CB81B00F1010A4FF082
:103C400000472078000703D4AA4501DB4FF0FF3A74
:103C50000021B7F1004F0DF143088DF8431024D037
:103C600002202B23002F01DA7F422D230A21021E7E
:103C7000A0F1010000DC5FB197FBF1FC97FBF1F2D2
:103C800001FB1C7C17460CF1300C08F801CDEEE767
:103C9000A8F1010003702188090501D5452100E044
:103CA0006521A0F1010800F8011C09980FA9A1EBFA
:103CB0000807FF1D00B10120411901EBEA70A1695D
:103CC0003844081A401EA0612078C00602D420465D
:103CD000FFF770FD099828B1D4E901219047206AC7
:103CE000401C20622078C00622D52046FFF762FDE6
:103CF0001EE0002E04DBB34502DD01A8805D00E07C
:103D00003020D4E901219047206A401C2062761CB3
:103D1000AAF101005FEA000A0AD100F04BF8C0687E
:103D20000168405CD4E901219047206A401C206270
:103D3000281EA5F10105DCDC07E0D4E9012118F813
:103D4000010B9047206A401C2062381EA7F1010732
:103D5000F3DC2046FFF744FD032011B043E60000EA
:103D600001694A1C02610878704700B58FB0CDE93F
:103D700001310021059105497944CDE9031011462F
:103D80006846FFF73FFD0FB000BD0000E5FFFFFFF5
:103D9000074B70B50D467B44FFF7E7FF0446284606
:103DA00000F000F910B14FF0FF3070BD204670BD3B
:103DB00059DDFFFF004870470804002030B5B0F11E
:103DC0000A024FEA900E71F100034EEA817EB0EBD9
:103DD0000E0061EB91014FEA101E4EEA017E10EBDE
:103DE0000E0041EB11114FEA102E4EEA016E10EB5E
:103DF0000E0041EB11214FEA104E4EEA014E10EB3E
:103E00000E0041EB1141401841F100014FEAD00092
:103E100040EA41704FEAD10110EB80054FEA81047E
:103E200044EA907444EB01046D1944EB0404521B02
:103E3000A3414FF0000348BF0A3200D530BD401CFB
:103E400041F1000130BD00002DE9F0411F4604465C
:103E500003260168072A01F4006004DB08B116A5F7
:103E600005E016A503E008B115A500E015A521F0B1
:103E700010002060A069C01EA0610FB1401EA061AB
:103E80002046FFF797FC4FB1D4E90121384690470F
:103E9000206A401C2062C01C206206E0206AFAE70B
:103EA000D4E9012115F8010B9047761EF8D220467F
:103EB000FFF796FCBDE8F0814E414E006E616E004A
:103EC000494E4600696E66002DE9F0478146164668
:103ED0008AB0334878440DC88DE80D0030487844E6
:103EE000801C03AC0DC884E80D0041F69B300844EB
:103EF000372190FBF1F290FBF1F5A5F1800501FB74
:103F000012041B3C02D56442012000E00020DFF8CF
:103F100090A080460027FA44AAF1BE0A0DE0E0070F
:103F200009D03246684607EB47010AEB810100F0F1
:103F300032FB8DE8070064107F1C002CEFD1184F76
:103F40007F44AC3F18E0E80714D007EB04100DF1F4
:103F5000180A90E80E008AE80E00C068F04201D10D
:103F600098190890324606A903A800F014FB03AB89
:103F700083E807006D10641C002DE4D132466946C9
:103F8000B8F1000F03A802D000F0F1FA01E000F050
:103F900002FBC9E90001C9F808200AB0BDE8F087B2
:103FA000C01B0000007B00F0800070470048704795
:103FB000E80300207546FFF7F9FFAE4605006946A5
:103FC000534620F00700854618B020B5FDF7D4FE13
:103FD000BDE820404FF000064FF000074FF000080A
:103FE0004FF0000B21F00701AC46ACE8C009ACE88B
:103FF000C009ACE8C009ACE8C0098D46704704466A
:10400000AFF300802046FCF707F900004FF0013CB9
:1040100050F8042B51F8043B9A4221D1A2EB0C0337
:10402000934313EACC1317D150F8042B51F8043BF7
:104030009A4215D1A2EB0C03934313EACC130BD194
:1040400050F8042B51F8043B9A4209D1A2EB0C031F
:10405000934313EACC13DBD04FF00000704700BF4E
:10406000D01A01BAB1FA81F101F0180122FA01F077
:10407000CB40C1F12001DBB2C0B2C01A2CFA01F36F
:10408000D11A914311EAC311E6D170475FEA400C9F
:1040900008BF91F0000F4FEA8C234FEAC12243EA98
:1040A00051514FEA1C5018BF00F5F0404FEA300064
:1040B00018BF41F000415FEA6C5C00F02980BCF160
:1040C000FF3F08BF40F080407047130C06BF12044A
:1040D0004FF0100C4FF0000C130E04BF12020CF145
:1040E000080C130F04BF12010CF1040C930F04BF52
:1040F00092000CF1020CD30F04BF52000CF1010C22
:1041000011464FF00002A0F11F00A0EB0C00704719
:1041100011F0004F08BF704731F000413FF4D5AFB8
:104120000B0C06BF09044FF0100C4FF0000C0B0EE7
:1041300004BF09020CF1080C0B0F04BF09010CF1BC
:10414000040C8B0F04BF89000CF1020CCB0F04BFD1
:1041500049000CF1010CCCF12003A0EB0C0022FA79
:1041600003F302FA0CF241EA030100F10100704787
:1041700020F07F4C80EA030023F07F47ACEB07037D
:1041800003F57C5300F0004003F1FF032DE9804963
:104190004FEA154B09B44FEA144325EA0B4E24EAC3
:1041A00003480FF2042606EB132749083E785FEA1E
:1041B000320203FB0667C7F5000707FB06F64FEA66
:1041C00054374FEAD64606F1020607FB066CCCF1DF
:1041D000005C4FEA1C472CEA074C07FB06F40CFB7B
:1041E00006F504EB15464FEA961634BF00204FF053
:1041F00000404FEAD13706FB07FC4FEA1C4C0CFB92
:104200000BF7D21B03FB0CF761EB07010CFB0EF75E
:10421000B0EB074072EB17420CFB08F734BFA2EB80
:104220000742B2EB074261EB17414FEA0C444FEAF9
:10423000910706FB07FC4FEA1C4C0CFB0BF7B0EB9D
:10424000C74072EB573203FB0CF734BFA2EBC742F7
:10425000B2EBC74261EB57310CFB0EF7B0EBC70076
:1042600072EB57720CFB08F734BFA2EBC702B2EB3C
:10427000C70261EB5771039F4FEA816141EA9211D6
:1042800004EBCC044FEAD1374FEA826206FB07FC0D
:1042900042EA90124FEA80604FEA1C4C0CFB0BF78D
:1042A000D21B03FB0CF761EB07010CFB0EF7B0EB25
:1042B000074072EB17420CFB08F734BFA2EB074232
:1042C000B2EB074261EB17414FEA8C554FEA910779
:1042D00004EB9C2406FB07FC4FEA1C4C0CFB0BF781
:1042E000B0EBC74072EB573203FB0CF734BFA2EBC5
:1042F000C742B2EBC74261EB57310CFB0EF7B0EB94
:10430000C70072EB57720CFB08F734BFA2EBC70271
:10431000B2EBC70261EB577115EB4C254FEA816197
:1043200041EA92114FEA82624FEAD13742EA901293
:1043300006FB07FC44F100044FEA80604FEA1C4C86
:104340000CFB0BF7D21B03FB0CF761EB07010CFB1B
:104350000EF7B0EB074072EB17420CFB08F734BFC7
:10436000A2EB0742B2EB074261EB174115EB1C15BC
:104370004FEA813141EA92414FEA823242EA904269
:104380004FEA80304FEA0C7644F1000448EA0343D8
:104390004EEA0B484FF0000EB2EB080C71EB03072E
:1043A00024BF624639464EEB0E0E4FF0000B00184C
:1043B000524149414BEB0B0BB2EB080C71EB03077D
:1043C0007BF1000B24BF624639464EEB0E0E4FF0D8
:1043D000000B0018524149414BEB0B0BB2EB080CA0
:1043E00071EB03077BF1000B24BF624639464EEBAD
:1043F0000E0E51EA020718BF46F0010616EB0E76C4
:1044000055F1000254F1000103D5BDE88901BDE872
:104410000088BDE88901BDE80048B619524141EB6A
:104420000101A3F10103704780807F7E7D7C7B7A50
:104430007978777676757473727171706F6E6E6D50
:104440006C6C6B6A6A6968686766666564646363F6
:1044500062616160605F5F5E5E5D5D5C5C5B5B5A7C
:104460005A595958585757565655555554545353E9
:1044700052525251515050504F4F4F4E4E4D4D4D44
:104480004C4C4C4B4B4B4A4A4A494949484848478F
:1044900047474746464645454544444444434343CD
:1044A0004342424242414141002B26D4770021D071
:1044B0001CB54FEA370703B44FF010004FF010015E
:1044C0004FF000000FBCBDE810400BF1010BBBF139
:1044D000010F08BF5FEA170722BF12F1010211F1B5
:1044E00001014FF0004143F1000300F0004043EAB6
:1044F00000007047F9D35708DAE746EA064613F199
:10450000400F4FEA16461FDD13F1200FDFBF1643A1
:104510000A46002120335B42C8D0C3F1200746EA97
:10452000064602FA07F74FEA164646EA0706C3F1BF
:10453000200722FA03F201FA07F721FA03F14FF0FC
:10454000000342EA0702B1E746EA020646EA0646E7
:104550004FEA164646EA0106BCBF46EA0646360C56
:104560004FF000034FF000024FF000019EE72DE9ED
:10457000C048934630B491E8380007C831EA400C8F
:1045800048BF34EA430C03D5FFF7F2FDFFF78CFF79
:10459000F0BCBDE800882DE9C048934630B491E8EE
:1045A000380007C810F0804F08BF13F0804F03D1C8
:1045B00000F005F8FFF778FFF0BCBDE8008820F0B8
:1045C0007F4780EA030023F07F4C07EB0C03A3F541
:1045D0007C5300F00040A3F1FE0392F0000F00F0C6
:1045E000B38095F0000F00F077802DE901494FEA84
:1045F00011404FEA144621EA004800FB06FC24EA79
:10460000064708FB06F607FB08F800FB07F718EB60
:1046100006484CEB164C4FEA124B18EB07484FEA92
:1046200015464CEB174022EA0B4E0BFB06FC25EA25
:1046300006470EFB06F607FB0EFE0BFB07F71EEB0D
:10464000064E4CEB164C4FF000061EEB074E4CEBA3
:10465000174B18EB0B0840F1000018EB0E0B58EB52
:10466000000840F100008F1A4FF000013CBFC94321
:10467000661B14BFB5EB040C00213CBFC943F61BFD
:104680004FEA17444EEA8E0E27EA04454FEA1C47CC
:1046900004FB07622CEA074C05FB07F70CFB05F649
:1046A00004FB0CFC16EB074642EB174216EB0C46DC
:1046B00042EB1C421BEB060658EB0202414146EA64
:1046C0009E0601D5BDE80189B619524141EB0101B1
:1046D000A3F10103BDE801894FEA14454FEA1147F0
:1046E00024EA054621EA074C05FB07F406FB07F719
:1046F0000CFB06F105FB0CFC11EB074144EB1744E6
:104700004FEA124711EB0C4144EB1C4422EA074CE0
:1047100005FB07F206FB07F70CFB06F605FB0CFC96
:1047200016EB074642EB174216EB0C4642EB1C45D4
:104730006A1854F1000148BF7047B619524141EB65
:104740000101A3F10103704795F0000F37D04FEA44
:1047500011424FEA144721EA024624EA074C02FBC1
:1047600007F106FB07F70CFB06F402FB0CFC14EB4D
:10477000074441EB17414FEA154714EB0C4441EB5A
:104780001C4125EA074C02FB07F506FB07F70CFB6B
:1047900006F602FB0CFC16EB074645EB174516EB3D
:1047A0000C4645EB1C42121951F1000148BF7047FD
:1047B000B619524141EB0101A3F1010370474FEAE1
:1047C00014454FEA114724EA054621EA074C05FB48
:1047D00007F106FB07F70CFB06F24FF0000605FB9E
:1047E0000CFC12EB074241EB174112EB0C4251EB70
:1047F0001C4148BF7047921841EB0101A3F101032E
:104800007047490050EAC12018BF04204A0D18BF64
:1048100040F0010040F2FF72B2EB515F08BF40F080
:104820000200012808BF0520704730380A2801D24D
:10483000012070470020704710B500290AD0087881
:10484000002807D005487844FFF7E0FB002801D096
:10485000002010BD0248784410BD00008A120000FC
:104860008212000021F00042A2F16052B2F5801FD6
:1048700001F0004328BFD2F17F6C0BD95FEA001C26
:1048800043EAC20242EB507018BF704728BF20F0C5
:1048900001007047B2F5801FBCBF184670474FEA51
:1048A000410C1CF5001F02D2084600F09ABC70B5FE
:1048B00000F0C8FA00000089FFF7F6BF4FF0004093
:1048C000A0F580007047000010B591EA030F48BFC3
:1048D00083F0004300F11283841A71EB030C05D2BC
:1048E000121943EB0C03001B61EB0C01DFF824E110
:1048F0004FEA1154A4EB135C1EEA430F18BF9EEA63
:10490000445F73D023EA0E03DCF1200E21EA045148
:1049100043F4801332D322FA0CFE10EB0E0023FA7C
:104920000CFE41EB0E01CCF1200E03FA0EFE10EB53
:104930000E0051F10001B1F5801FCCF1200E32D2F2
:1049400001EB045112FA0EF2BDE8104058BF704757
:10495000401C38BF5FEA420218BF7047002814BFEE
:1049600020F0010041F100014FEA410313F5001F5F
:1049700038BF7047A1F1C04100F0B2BA012A43EB41
:104980000302ACF1200CDCF11F0E32BF4FF0000E21
:1049900023FA0CF310EB030041EB0451B4EB115F6D
:1049A000D0D0A1EB045101F5801149085FEA300035
:1049B00001EB04510ED350F1000038BF12FA0EFE85
:1049C00008D1BDE81040C9E7401C38BF5FEA420289
:1049D000CAD1C3E7BDE810404FEA410313F5001FF9
:1049E00038BF7047A1F1C04100F07ABA9EEA445F37
:1049F00008D011EA5E0FBDE8104004BF01F000418D
:104A000000207047BDE8104070B500F01BFA00BFF1
:104A100064FBBE3E0000E0FF2DE9C04130B4DFF88A
:104A2000A0C23CEA111418BF3CEA131400F0EC8059
:104A300081EA03051CEA111444EAD57418BF1CEA84
:104A4000131500F0C780A4EB05044FF0004545EABC
:104A5000C12145EAC32341EA505143EA525304F1CC
:104A60007F74994204F500344FEAC0204FEAC22215
:104A700008BF904200F09C804FEA13650FF2401689
:104A8000765D4FEA134506FB05F7C7F1807706FB15
:104A900007F74FEAD737A7FB03687642C8F5803897
:104AA000A7FB06CE38BFA8F1010807FB08E64FF0C8
:104AB000000EA6FB028CE6FB03CEDCF1000CCEF16F
:104AC000004E38BFAEF1010EA6FB0C584FF00007A8
:104AD0004FF00005E6FB0E87A1FB08C6A0FB07CE42
:104AE00016EB0E0645F10005E1FB076515F1E04EFA
:104AF0007EBFA4F580345FEA46066D4116F180075B
:104B000045F100054FEA17274FEA066647EA0567B1
:104B1000A6F1DE46B6F1805F4FEA15251FD938466B
:104B200024F0010C05EBC471BCF1FE6F01EB0C111C
:104B300002D8F0BCBDE8008124425CBF01F5801EB4
:104B40009EEAC47F02D4F0BCBDE80081244238D480
:104B5000F0BCA1F1C041BDE8004100F0C1B94FEA8D
:104B6000D22242EA43524FEAD323A7FB02864FEAFE
:104B7000D02040EA415007FB03661EEA0E0F4FEAC1
:104B8000D12105FB026658BFA6EB0056B6EB0056D6
:104B90004FEA520E4EEAC37E18EB0E0E56EB530E42
:104BA000BDD518EB02085E417F1C55F10005B6E744
:104BB0004FF480154FF000074FF000064FF000084B
:104BC000ADE7F0BC4FF0000001F1C04101F0004141
:104BD000BDE8008111EA0C1F0CEA131500D00CE0AF
:104BE00013EA0C1F00F025804FF00000F0BC81EAB2
:104BF000030101F00041BDE80081F0BCBDE80041C7
:104C000081EA030100F06CB9F0BCBDE8004170B569
:104C100000F018F9097EFC3E00F007B881EA0301B4
:104C20004FF0000001F00041704781EA030100F0FD
:104C300057B9F0BCBDE800414FF000002149704772
:104C4000FFFDFBF9F7F5F4F2F0EEEDEBE9E8E6E451
:104C5000E3E1E0DEDDDBDAD8D7D5D4D3D1D0CFCDD8
:104C6000CCCBCAC8C7C6C5C4C2C1C0BFBEBDBCBB11
:104C7000BAB9B8B7B6B5B4B3B2B1B0AFAEADACAB0C
:104C8000AAA9A8A8A7A6A5A4A3A3A2A1A09F9F9EE6
:104C90009D9C9C9B9A999998979796959594939398
:104CA000929191908F8F8E8E8D8C8C8B8B8A89892F
:104CB00088888787868585848483838282818180B2
:104CC0000000FF070000F87FB0FA80F310FA03F14C
:104CD0000AD0C3F11D0303F580634FEA41504FEA48
:104CE000035202EBD12170474FF0000070470000E3
:104CF000DFF848C170B51CEA111E1EBF1CEA13156F
:104D00009EEA0C0F95EA0C0F00F06F8081EA030415
:104D100023EA4C134EEAD47E21EA4C1141F480116F
:104D200043F48013AE44A1FB024CA0FB0365AEF13B
:104D30007F7E361955EB0C05A1FB034C4CF10003AB
:104D4000A0FB021C16EB0C06654153F1000309425F
:104D500018BF46F0010613F4007F0BD14FEA033170
:104D60004FEA0530340341EA155140EA16506FF01E
:104D700003020AE04FEAC3214FEAC520F40241EAE8
:104D8000555140EA56506FF0020202EB2E4201EB01
:104D9000025585EACE710AD05FEA440C18BF24F0B0
:104DA000004450F1000041F1000120EAD47040F2CB
:104DB000FE7C624500D270BDA84214BF4FF0804413
:104DC0004FF04044002E08BF0024BEF1806FA8BF02
:104DD000A1F1C041BDE8704080F282804FF0000038
:104DE00001F1C04101F0004170479EEA0C0F0CEA4E
:104DF000131518BF95EA0C0F06D04FF0000081EA9A
:104E0000030E0EF0004170BD00F01CF88900013E59
:104E100000F007B800F009B84FEA430C5FEA5C5CA9
:104E200008D081EA030100F05BB84FEA410C5FEA69
:104E30005C5CF6D14FF00000014970470000FF07AD
:104E40000000F87F0EF1020E2EF0030E5EF8046BE8
:104E5000364205D4012A43EB030515F5001F12D88D
:104E6000012841EB010C1CF5001F0CD80ED14FEAB4
:104E7000D17C15F5001F0CEB4C0C0CF1020C08BF9B
:104E80004CEBD37C04E04FF0080C01E04FEAD37CFC
:104E90000CEB4C0526FA05F606F00706B6F1040CF5
:104EA00006D20EEB860CBDE870404CF0010C60475A
:104EB000DFE80CF0090B02024FF000414FF0000058
:104EC000A1F5002170BD19461046012851EB0104DF
:104ED00018BFD4F5001484BF002001F0004170BD5C
:104EE0000808A0F500114FEA3101704710B591EAAA
:104EF000030F48BF83F000433FF5EEAC841A71EB1B
:104F0000030C07D212198CF0004C43EB0C03001B6E
:104F100061EB0C01DFF8A4E14FEA1154A4EB135C40
:104F20001EEA430F18BF9EEA445F00F0B08023EAF8
:104F30006E03524221EA0451C3EB6E0338BF5B1E7D
:104F4000DCF1200E25D322FA0CFE10EB0E0043FA02
:104F50000CFE41EB0E01CCF1200E03FA0EFE10EB1D
:104F60000E0051F10001CCF1200E29D412FA0EF2FC
:104F700001EB0451BDE8104058BF7047401C1CBFF6
:104F8000B2F1004F704700280CBF491C20F001000F
:104F9000704712EB020E43EB030218BF4FF0010EF5
:104FA0004EEA4202ACF1200CDCF11E0E54D943FA59
:104FB0000CFE10EB0E0051F1FF31CCF11E0ED5D5D9
:104FC0000EF1010E12FA0EFE404141EB010101EB20
:104FD000445C5FEA5C5C10D910EBDE7001EB0451BD
:104FE00038BFBEF1004FBDE8104018BF7047002821
:104FF0000CBF491C20F00100704730D24FEAD42C7E
:1050000011F5001124F400641BD0B1FA81F20B3ABF
:10501000A41AA41ED2F12003914030FA03F31943DD
:10502000904001EBCC71002C01EB0451BDE8104025
:10503000A8BF704701F1C0414FF0000001F00041EE
:105040007047B0FA80F310FA03F100D110BDE41AF2
:10505000173C4805C90AE4E701EB045110BD4910AB
:1050600001EB0451BDE810404FEA300002E04FF080
:10507000000170474A0008BF0042F8D0B2F5001F97
:1050800028BF704701F000414FF0000070479EEAD2
:10509000445F07D011EA5E0FBDE8104004BF002155
:1050A00000207047BDE8104070B5FFF7CBFE00BF91
:1050B00040DFF63E83F00041104670470000E0FFFD
:1050C00043004FEAD30C4FEA3C0C43401FBF40075C
:1050D0000CF1605113F0FE4F70471CF0006F03D1CC
:1050E00000200CF0004170470CF0004343EA507080
:1050F00010B540EACC0000F02EF800BF000000928E
:105100004FEA0001FFF7ECBE4FF000414FF0000006
:10511000A1F5002170470000C10DD1F19E0206DB10
:105120004FEA002343F0004323FA02F070470042A5
:1051300007D54FEA4001B1F1FE4F02D24FF0000017
:10514000704710B500F007F849922480002070479E
:105150006FEA200070470EF1020E2EF0030E5EF88B
:10516000044B244204D44FEA4102B2F17F4F11D8DC
:105170004FEA4003B3F17F4F0CD80ED14FEAD07CF9
:10518000B2F17F4F0CEB4C0C0CF1020C08BF4CEB56
:10519000D17C04E04FF0080C01E04FEAD17C0CEB2D
:1051A0004C0324FA03F404F00704B4F1040C06D20F
:1051B0000EEB840CBDE810404CF0010C6047DFE8BA
:1051C0000CF0070802024FF00040A0F5800010BD6F
:1051D0000846420018BFD2F1807288BF00F000403C
:1051E00010BDFF2141EAD050C0057047FEF781BCD9
:1051F0000000000000000000002F00000000070079
:10520000070000147F147F1400242A7F2A120062F2
:10521000640813230036495522500000050300009E
:1052200000001C224100000041221C000014083E26
:1052300008140008083E0808000000A060000008EC
:105240000808080800006060000000201008040240
:10525000003E5149453E0000427F400000426151FE
:105260004946002141454B31001814127F10002798
:1052700045454539003C4A4949300001710905035B
:1052800000364949493600064949291E000036368C
:1052900000000000563600000008142241000014EF
:1052A00014141414000041221408000201510906CC
:1052B00000324959513E007C1211127C007F49494D
:1052C0004936003E41414122007F4141221C007F7E
:1052D00049494941007F09090901003E4149497A8C
:1052E000007F0808087F0000417F41000020404106
:1052F0003F01007F08142241007F40404040007F72
:10530000020C027F007F0408107F003E4141413EB5
:10531000007F09090906003E4151215E007F0919FD
:1053200029460046494949310001017F0101003FFA
:105330004040403F001F2040201F003F4038403F7A
:1053400000631408146300070870080700615149DE
:10535000454300007F41410000552A552A55000071
:1053600041417F00000402010204004040404040EF
:10537000000001020400002054545478007F484487
:10538000443800384444442000384444487F0038BE
:105390005454541800087E0901020018A4A4A47CE7
:1053A000007F080404780000447D400000408084B1
:1053B0007D00007F102844000000417F4000007CF9
:1053C00004180478007C0804047800384444443805
:1053D00000FC242424180018242418FC007C080451
:1053E000040800485454542000043F444020003C2A
:1053F0004040207C001C2040201C003C4030403CB1
:10540000004428102844001CA0A0A07C0044645440
:105410004C44141414141414000000000000000084
:105420000000000000000000000000F80000000084
:10543000000000333000000000100C06100C0600C5
:10544000000000000000000040C07840C07840002C
:10545000043F04043F040400007088FC083000008E
:10546000001820FF211E0000F008F000E0180000E6
:1054700000211C031E211E0000F00888700000009F
:105480001E2123241927211010160E0000000000F1
:105490000000000000000000000000E0180402000E
:1054A000000000071820400000020418E00000007F
:1054B0000040201807000000404080F0804040007D
:1054C0000202010F01020200000000F000000000D3
:1054D0000101011F010101000000000000000000A7
:1054E00080B070000000000000000000000000001C
:1054F00000010101010101010000000000000000A5
:10550000003030000000000000000000806018043F
:10551000006018060100000000E010080810E0001C
:10552000000F102020100F00001010F800000000E5
:105530000020203F2020000000700808088870002C
:1055400000302824222130000030088888483000AC
:105550000018202020110E000000C02010F80000CC
:1055600000070424243F240000F808888808080065
:105570000019212020110E0000E01088881800007A
:10558000000F112020110E0000380808C83808004C
:105590000000003F000000000070880808887000CC
:1055A000001C222121221C0000E010080810E0004D
:1055B0000000312222110F00000000C0C0000000D6
:1055C00000000030300000000000008000000000FB
:1055D00000008060000000000000804020100800F3
:1055E00000010204081020004040404040404000BC
:1055F0000404040404040400000810204080000097
:105600000020100804020100007048080808F0009B
:105610000000003036010000C030C828E810E0006B
:105620000718272423140B000000C038E0000000F6
:10563000203C23020227382008F888888870000060
:10564000203F202020110E00C03008080808380034
:10565000071820202010080008F808080810E000AB
:10566000203F202020100F0008F88888E80810004C
:10567000203F20202320180008F88888E808100020
:10568000203F200003000000C03008080838000058
:1056900007182020221E020008F808000008F80859
:1056A000203F210101213F20000808F808080000E0
:1056B0000020203F2020000000000808F808080013
:1056C000C08080807F00000008F888C0281808008B
:1056D000203F20012638200008F8080000000000C4
:1056E000203F20202020300008F8F800F8F80800BB
:1056F000203F003F003F200008F830C00008F808B5
:10570000203F200007183F00E01008080810E000C4
:105710000F10202020100F0008F808080808F000DB
:10572000203F210101010000E01008080810E000FE
:105730000F18242438504F0008F888888888700093
:10574000203F2000030C3020007088080808380033
:105750000038202121221C00180808F80808180029
:105760000000203F2000000008F808000008F808AA
:10577000001F202020201F000878880000C838085B
:10578000000007380E010000F80800F80008F800D3
:10579000033C0700073C030008186880806818086D
:1057A00020302C03032C30200838C800C8380800EB
:1057B0000000203F2000000010080808C83808003A
:1057C0002038262120201800000000FE02020200DE
:1057D0000000007F40404000000C30C0000000008E
:1057E000000000010638C00000020202FE000000B6
:1057F000004040407F00000000000402020204005C
:105800000000000000000000000000000000000098
:105810008080808080808080000202040000000080
:105820000000000000000000000080808080000078
:105830000019242222223F2008F800808000000066
:10584000003F112020110E00000000808080000029
:10585000000E112020201100000000808088F80038
:10586000000E112020103F2000008080808000006A
:10587000001F222222221300008080F088888818CE
:105880000020203F202000000000808080808000D9
:10589000006B94949493600008F80080808000006E
:1058A000203F210000203F20008098980000000049
:1058B0000020203F20200000000000809898000079
:1058C00000C08080807F000008F800008080800099
:1058D000203F24022D302000000808F800000000BE
:1058E0000020203F20200000808080808080800079
:1058F000203F20003F20003F80800080808000000B
:10590000203F210000203F20000080808080000098
:10591000001F202020201F008080008080000000C9
:1059200080FFA12020110E000000008080808000F8
:10593000000E112020A0FF808080800080808000E9
:1059400020203F2120000100000080808080800016
:105950000033242424241900008080E0808000008B
:105960000000001F202000008080000000808000D8
:10597000001F202020103F20808080000080808039
:1059800000010E30080601008080008000808080C9
:105990000F300C030C300F000080800080808000EE
:1059A0000020312E0E312000808080000080808019
:1059B00080818E70180601000080808080808000C9
:1059C0000021302C2221300000000000807C0202E7
:1059D00000000000003F404000000000FF00000009
:1059E00000000000FF0000000002027C80000000B8
:1059F0000040403F000000000006010102020404D4
:105A0000000000000000000004000008000000008A
:105A10000000000200010000100000000240000031
:105A2000000000A00000000005400000000000C8C9
:105A3000000000000C4000000000409C000000003E
:105A4000194000000020BCBE0000000034400000EF
:105A5000BFC91B8E00000004B5400000504BCFD0E2
:105A60006607E2CF010000006C4100003E8251AAAF
:105A7000DFEEA73401000000D9420000DCB5A0E24F
:105A80003A301F97FFFFFFFFB4450000FD25A0C877
:105A9000E9A3C14FFFFFFFFFFF3F000000000080B0
:105AA00000000000FF3F0000000000800000000038
:105AB000EC5A000800000020E00200006C01000821
:105AC000405C0008E002002068070000C8010008F0
:105AD0001C00000043000000F8FFFFFF0C00000066
